:020000040800F2
:100000000080012031520008BD0D0008BF0D00081E
:10001000C10D0008C30D0008C50D00080000000058
:10002000000000000000000000000000C70D0008F4
:10003000C90D000800000000CB0D0008CD0D000820
:100040008152000881520008815200088152000844
:100050008152000881520008815200088152000834
:100060008152000881520008815200088152000824
:100070008152000881520008815200088152000814
:1000800081520008815200088152000800000000DF
:100090000000000000000000000000008152000885
:1000A00081520008D50D00088152000881520008D5
:1000B00081520008815200088152000881520008D4
:1000C00081520008815200088152000881520008C4
:1000D0008152000881520008E50D00080000000070
:1000E000F50D000881520008815200080000000050
:1000F0000000000000000000000000008152000825
:10010000000000008152000881520008815200085E
:1001100000000000000000000000000000000000DF
:100120008152000881520008815200088152000863
:1001300081520008000000000000000000000000E4
:1001400000000000000000000000000081520008D4
:100150008152000881520008815200088152000833
:1001600081520008815200080000000000000000D9
:10017000000000000000000000000000000000007F
:100180000000000081520008000000000000000094
:040190008152000890
:1001A00010B5054C237833B9044B13B10448AFF3B1
:1001B00000800123237010BDB40200200000000065
:1001C0001C5B000808B5034B1BB103490348AFF3A0
:1001D000008008BD00000000B80200201C5B000881
:1001E00081F0004102E000BF83F0004330B54FEAE8
:1001F00041044FEA430594EA050F08BF90EA020F55
:100200001FBF54EA000C55EA020C7FEA645C7FEAE7
:10021000655C00F0E2804FEA5454D4EB5555B8BF0A
:100220006D420CDD2C4480EA020281EA030382EA7B
:10023000000083EA010180EA020281EA0303362D0D
:1002400088BF30BD11F0004F4FEA01314FF4801CE0
:100250004CEA113102D0404261EB410113F0004FF2
:100260004FEA03334CEA133302D0524263EB4303A9
:1002700094EA050F00F0A780A4F10104D5F1200E47
:100280000DDB02FA0EFC22FA05F2801841F10001A2
:1002900003FA0EF2801843FA05F359410EE0A5F176
:1002A00020050EF1200E012A03FA0EFC28BF4CF0A7
:1002B000020C43FA05F3C01851EBE37101F000455D
:1002C00007D54FF0000EDCF1000C7EEB00006EEB6A
:1002D0000101B1F5801F1BD3B1F5001F0CD34908F4
:1002E0005FEA30004FEA3C0C04F101044FEA44524B
:1002F00012F5800F80F09A80BCF1004F08BF5FEAD2
:10030000500C50F1000041EB045141EA050130BDB1
:100310005FEA4C0C404141EB010111F4801FA4F154
:100320000104E9D191F0000F04BF01460020B1FAA9
:1003300081F308BF2033A3F10B03B3F120020CDAE1
:100340000C3208DD02F1140CC2F10C0201FA0CF0BF
:1003500021FA02F10CE002F11402D8BFC2F1200C24
:1003600001FA02F120FA0CFCDCBF41EA0C019040DA
:10037000E41AA2BF01EB0451294330BD6FEA040423
:100380001F3C1CDA0C340EDC04F11404C4F120020E
:1003900020FA04F001FA02F340EA030021FA04F320
:1003A00045EA030130BDC4F10C04C4F1200220FA77
:1003B00002F001FA04F340EA0300294630BD21FAB5
:1003C00004F0294630BD94F0000F83F4801306BF7B
:1003D00081F480110134013D4EE77FEA645C18BF6F
:1003E0007FEA655C29D094EA050F08BF90EA020F06
:1003F00005D054EA000C04BF1946104630BD91EAFE
:10040000030F1EBF0021002030BD5FEA545C05D100
:100410004000494128BF41F0004130BD14F580043F
:100420003CBF01F5801130BD01F0004545F0FE41B3
:1004300041F470014FF0000030BD7FEA645C1ABFE8
:10044000194610467FEA655C1CBF0B46024650EA1F
:10045000013406BF52EA033591EA030F41F400214B
:1004600030BD00BF90F0000F04BF0021704730B5D1
:100470004FF4806404F132044FF000054FF00001A6
:1004800050E700BF90F0000F04BF0021704730B567
:100490004FF4806404F1320410F0004548BF40423C
:1004A0004FF000013EE700BF42004FEAE2014FEA91
:1004B00031014FEA02701FBF12F07F4393F07F4F6C
:1004C00081F06051704732F07F4208BF704793F06F
:1004D0007F4F04BF41F40021704730B54FF4607482
:1004E00001F0004521F000411CE700BF50EA010285
:1004F00008BF704730B54FF000050AE050EA01022E
:1005000008BF704730B511F0004502D5404261EB9D
:1005100041014FF4806404F132045FEA915C3FF4DE
:10052000D8AE4FF003025FEADC0C18BF03325FEA7B
:10053000DC0C18BF033202EBDC02C2F1200300FA2C
:1005400003FC20FA02F001FA03FE40EA0E0021FA51
:1005500002F11444BDE600BF53B94AB9002908BFEF
:1005600000281CBF4FF0FF314FF0FF3000F072B990
:10057000ADF1080C6DE904CE00F006F8DDF804E0FA
:10058000DDE9022304B070472DE9F047089E0446D8
:100590008846002B4BD18A42154667D9B2FA82F2BF
:1005A0004AB1C2F1200701FA02F320FA07F7954099
:1005B00047EA030894404FEA154E230CB8FBFEF7B8
:1005C0001FFA85FC0EFB178843EA084307FB0CF172
:1005D000994209D9EB1807F1FF3080F01B8199424D
:1005E00040F21881023F2B445B1AA4B2B3FBFEF029
:1005F0000EFB103344EA034400FB0CFCA44509D96C
:100600002C1900F1FF3380F00781A44540F20481EA
:1006100002382C4440EA0740A4EB0C0400271EB12A
:10062000D4400023C6E900433946BDE8F0878B4239
:1006300009D9002E00F0EB800027C6E900013846FA
:100640003946BDE8F087B3FA83F7002F47D18B42D4
:1006500002D3824200F2FA80841A61EB0303012084
:100660009846002EE0D0C6E90048DDE702B9FFDE7B
:10067000B2FA82F2002A40F08F80491B4FEA154EF1
:100680001FFA85F80127B1FBFEFC230C0EFB1C11A1
:1006900043EA014308FB0CF1994207D9EB180CF12E
:1006A000FF3002D2994200F2CD808446591AA3B29B
:1006B000B1FBFEF00EFB101443EA044408FB00F803
:1006C000A04507D92C1900F1FF3302D2A04500F252
:1006D000B6801846A4EB080440EA0C409FE7C7F137
:1006E000200CBB4022FA0CFE4EEA030E01FA07F47E
:1006F00020FA0CF521FA0CF34FEA1E482543B3FB10
:10070000F8F92C0C08FB19331FFA8EFA44EA03435C
:1007100009FB0AF49C4202FA07F200FA07F10BD92E
:100720001EEB030309F1FF3080F087809C4240F20A
:100730008480A9F1020973441B1BADB2B3FBF8F02E
:1007400008FB103345EA034400FB0AFAA24508D926
:100750001EEB040400F1FF336BD2A24569D90238C5
:10076000744440EA0940A0FB0289A4EB0A044C450A
:10077000C2464B4654D351D0002E69D0B1EB0A0586
:1007800064EB030404FA0CFCFD40FC404CEA050554
:10079000C6E90054002747E7C2F1200320FA03F717
:1007A000954001FA02F021FA03F34FEA154E38435F
:1007B000010CB3FBFEF71FFA85F80EFB173341EA75
:1007C000034107FB08F38B4204FA02F407D96918C6
:1007D00007F1FF3C2FD28B422DD9023F2944CB1A7F
:1007E00081B2B3FBFEF00EFB103341EA034100FB84
:1007F00008F38B4207D9691800F1FF3C17D28B42EE
:1008000015D902382944C91A40EA07473BE7374659
:10081000304609E70746E7E61846FBE64145ABD216
:10082000B8EB020A69EB0E0201381346A4E76046F2
:10083000E9E7184695E76746D1E781467CE7023845
:100840002C4447E7ACF1020C2B442FE7384608E76D
:100850003746E9E6704700BF0000000000000000D6
:1008600001F0FF01102A2BDB10F0070F08D010F861
:10087000013B013A8B422DD010F0070F42B3F6D165
:10088000F0B441EA012141EA014122F007047FF07E
:1008900000070023F0E80256083C85EA010586EAD5
:1008A000010685FA47F5A3FA87F586FA47F6A5FA11
:1008B00087F68EB9EED1F0BC01F0FF0102F007021D
:1008C00032B110F8013B013A83EA010313B1F8D1C8
:1008D0000020704701387047002D06BF35460338A9
:1008E000073815F0010F07D1013015F4807F02BFE2
:1008F000013015F4C03F0130F0BC0138704700BF33
:1009000030B58BB00024059406940794089409949C
:100910000194264B1A6B42F004021A631A6B02F020
:1009200004020192019A02941A6B42F080021A6347
:100930001A6B02F080020292029A03941A6B42F040
:1009400001021A631A6B02F001020392039A0494E3
:100950001A6B42F002021A631B6B03F0020304934A
:10096000049B134D22462021284602F0E3FE4FF45B
:10097000005305930F4B0693079405A90E4802F008
:1009800087FD20230593012306930794089405A966
:10099000284602F07DFD22462146282002F00CFD6B
:1009A000282002F03DFD0BB030BD00BF00380240F2
:1009B000000002400000211000080240184B1B6894
:1009C000184A1268934204D0154A5268012A04D08A
:1009D0007047134B00225A60704730B585B0104DF8
:1009E00001332B60104C22460221002002F0C2FB92
:1009F00022686168A068AB680C4C03900291019278
:100A00000B4A00920B4A8021204604F06DFC012322
:100A100080222146084804F025FA05B030BD00BF09
:100A2000D002002000000020C0050020FC040020AF
:100A3000BC050020605B00087C05002072B6FEE764
:100A400008B50948094B036042F2D0034360002314
:100A500083606422C2600361836104F039F800B9E5
:100A600008BDFFF7EBFF00BF340400200044014045
:100A700008B50A480A4B03604FF4E1334360002392
:100A80008360C36003610C2242618361C36104F02F
:100A9000BAF900B908BDFFF7D1FF00BF7C050020FF
:100AA0000044004000B595B03022002108A804F0B1
:100AB00013FC002303930493059306930793019378
:100AC0001F4A116C41F080511164126C02F0805287
:100AD0000192019A02931B490A6822F4404242F4AF
:100AE00000420A600A6802F440420292029A02211D
:100AF000089101220B9210220C920E910F931092EA
:100B00004FF4A8731193042312930723139308A897
:100B100003F086FB80B90F23039302210491002385
:100B200005934FF480520692079303A803F0DAFD71
:100B300020B915B05DF804FBFFF780FFFFF77EFFDB
:100B40000038024000700040F0B587B002F0F6FBBC
:100B5000FFF7A8FFFFF7D4FEFFF772FFFFF788FF4C
:100B60000221002002F018FA60B96423802229498A
:100B7000294804F077F9002843D1274804F052FBB4
:100B80002028FAD10221002002F0C8FA60B96423BB
:100B900080222249204804F065F9002833D11E48FC
:100BA00004F040FB2028FAD11D4D2A4602210020E6
:100BB00002F040FB1B4E32460221002002F00AFBED
:100BC000194F3A460221002002F064FB174C3B68A3
:100BD00004933068FFF768FCCDE902012868FFF74D
:100BE00063FCCDE90001124A8021204604F07CFB21
:100BF000642380222146084804F034F928B1FFF725
:100C00001DFFFFF71BFFFFF719FF0A4803F040FE27
:100C1000FEE700BF040000207C05002084000020C7
:100C2000CC0500207404002078040020B4030020C8
:100C3000745B00083404002010B51C4B9A68013224
:100C40009A6000221A604FF47A738022184919487A
:100C500004F008F920BB4FF47A73012216491548B5
:100C600004F071F9F0B9134804F0DCFA2028FAD145
:100C7000124C114B124A8021204604F035FB4FF4F0
:100C80007A73802221460B4804F0ECF860B90948D9
:100C900004F0C8FA2028FAD1044B01225A6010BD92
:100CA000FFF7CCFEFFF7CAFEFFF7C8FED002002018
:100CB000040100207C050020BC0500207C040020ED
:100CC000B45B000800B583B0002100910C4B5A6C56
:100CD00042F480425A645A6C02F480420092009AB4
:100CE00001911A6C42F080521A641B6C03F080531D
:100CF0000193019B072002F04DFB03B05DF804FB5C
:100D00000038024002680E4B9A4200D0704700B58E
:100D100083B00021019103F574435A6C42F4003210
:100D20005A645B6C03F400330193019B0A4619205B
:100D300002F042FB192002F073FB03B05DF804FBE4
:100D40000044014010B588B0002303930493059339
:100D5000069307930268174B9A4201D008B010BD62
:100D60000024019403F5FA331A6C42F400321A6439
:100D70001A6C02F400320192019A02941A6B42F04A
:100D800001021A631B6B03F001030293029B0C2305
:100D90000393022304930723079303A9064802F051
:100DA00077FB22462146262002F006FB262002F091
:100DB00037FBD3E70044004000000240FEE7FEE7B7
:100DC000FEE7FEE7FEE770477047704708B502F0A0
:100DD000CFFA08BD08B5024803F06FFD08BD00BF9B
:100DE0003404002008B5024804F080F908BD00BFB3
:100DF0007C05002008B54FF4005002F0A1FC08BDAE
:100E00002DE9F04788B0002501951D4C236B43F078
:100E100002032363236B03F002030193019B4FF44E
:100E2000807303934FF0120ACDF810A04FF0010920
:100E3000CDF814904FF00308CDF8188004270797D9
:100E4000104E03A9304602F023FB4FF400730393C6
:100E5000CDF810A0CDF81490CDF81880079703A90D
:100E6000304602F015FB0295236C43F40013236413
:100E7000236C03F400130293029B08B0BDE8F087D3
:100E8000003802400004024010B5084A136C23F4F5
:100E900000131364064C4FF48071204602F0CAFB25
:100EA0004FF40071204602F0C5FB10BD003802402F
:100EB000000402400B4B1B687BB1013B094A1360E5
:100EC0000BB10020704710B5074C2046FFF7DCFF40
:100ED000204602F06AFF10B910BD002070476FF085
:100EE0000700F9E7DC020020D005002010B584B02F
:100EF0004FF4805402940193009201230A46014664
:100F0000084802F06BFF10B9002004B010BD05487E
:100F100003F083F9042802D06FF00300F5E76FF0C7
:100F20006500F2E7D005002010B584B04FF480547E
:100F300002940193009201230A460146084803F0F7
:100F400001F810B9002004B010BD054803F065F9A0
:100F5000042802D06FF00300F5E76FF06500F2E7B8
:100F6000D005002008B502F00FFA08BD08B50A4AFE
:100F700002600A4A426000228260C2604FF48041EF
:100F8000016142618261C261026202F033FE034686
:100F900000B10123184608BD00540040801A060025
:100FA0000E4B0F4A1A600F4A1368591C11600BB19F
:100FB0000020704710B5094803F02CF908B1002053
:100FC00010BD064C2046FFF71BFF2046FFF7CEFF63
:100FD00008B90020F4E76FF00700F1E7D005002022
:100FE00000540040DC02002008B503460B4A12689A
:100FF00042B10A4A106803446A46934206D8074A37
:10100000136008BD054A06491160F2E704F03AF999
:101010000C2303604FF0FF30F3E700BFE002002035
:1010200038060020054BD3F8882042F47002C3F83C
:1010300088204FF000629A60704700BF00ED00E02A
:1010400001230B70002048708870C870486010231E
:101050008B60C86000230B61014A4A618B61704755
:101060000000C84300200870487001238B70C870CE
:10107000486088603223CB6000230B614B61014BD9
:101080008B6170470000C8424FF07F530B60002017
:10109000704732230B60002070470020704700002B
:1010A000F7EE007AB4EEE70AF1EE10FA26D9F2EE86
:1010B000047AB4EEE70AF1EE10FA24D9F3EE097AD5
:1010C000B4EEE70AF1EE10FA1FD9DFED137AB4EEB1
:1010D000E70AF1EE10FA1AD9DFED107AB4EEE70A5A
:1010E000F1EE10FA15D9DFED0E7AB4EEE70AF1EE63
:1010F00010FA01D9072302E0062300E0012380F85B
:101100002A30002070470223F9E70323F7E704237E
:10111000F5E70523F3E700BF000048420000C8429E
:101120000000484310B584682CB1446941F0400187
:10113000007BA04710BD446941F08001007BA047BF
:10114000F8E710B584682CB1046941F04001007BD8
:10115000A04710BD046941F08001007BA047F8E77B
:1011600010B584682CB1446941F04001007BA04770
:1011700010BD446941F08001007BA047F8E710B53D
:1011800084682CB1046941F04001007BA04710BD88
:10119000046941F08001007BA047F8E790F829300E
:1011A000012B0DD010B5044690F82A101C3000F029
:1011B000A3FC034638B9012284F82920184610BD43
:1011C0000023184670474FF0FF33F7E708B5F7EEF6
:1011D000007AB4EEE70AF1EE10FA24D9F2EE047ABE
:1011E000B4EEE70AF1EE10FA25D9F3EE097AB4EE7F
:1011F000E70AF1EE10FA20D9DFED157AB4EEE70A2E
:10120000F1EE10FA1BD9DFED137AB4EEE70AF1EE36
:1012100010FA16D9DFED107AB4EEE70AF1EE10FA03
:1012200011D8062100E001211C3000F065FC0346C6
:1012300058B9184608BD0221F6E70321F4E7042156
:10124000F2E70521F0E70721EEE74FF0FF33F0E783
:10125000000048420000C8420000484308B590F82A
:101260002930012B02D0FFF71BFF08BDFFF7AEFFAF
:10127000FBE738B5054600F11C040121204600F0CB
:10128000CBFCB8B90021204600F0C0FDA8B9052369
:1012900085F82A300021204600F02EFC80B900217C
:1012A000204600F07BFC034668B9012285F828201F
:1012B000184638BD4FF0FF33FAE74FF0FF33F7E73A
:1012C0004FF0FF33F4E74FF0FF33F1E708B50229A1
:1012D00005DD04290BDD08290BDC022100E00021DB
:1012E0001C3000F05BFC034628B9184608BD0121FC
:1012F000F6E70321F4E74FF0FF33F6E708B51C30BB
:1013000000F05AFD034608B9184608BD4FF0FF33F8
:10131000FAE738B590F8293013B90023184638BDDC
:10132000044600F11C0500F12A01284600F000FCEB
:1013300048B90021284600F0DFFB034630B90022FF
:1013400084F82920EAE74FF0FF33E7E74FF0FF3357
:10135000E4E710B50446FFF7DCFF38B90246002386
:1013600084F82A3084F82830104610BD4FF0FF3240
:10137000FAE7000030B583B00D4600F11C040DF112
:101380000701204600F090FB00285ED10DF1060118
:10139000204600F0CDFB0346002859D19DF80720D8
:1013A000022A0AD09DF80620092A57D8DFE802F061
:1013B0002F34383B3E414447564A9DF80620092ABF
:1013C00049D8DFE802F005080C0F1215181B1E2182
:1013D00000222A601DE04FF07E522A6019E0214A67
:1013E0002A6016E0204A2A6013E0204A2A6010E0B2
:1013F0001F4A2A600DE01F4A2A600AE01E4A2A603E
:1014000007E01E4A2A6004E01D4A2A6001E000222B
:101410002A60184603B030BD4FF07E522A60F8E7CC
:10142000104A2A60F5E7104A2A60F2E70F4A2A605C
:10143000EFE70F4A2A60ECE70E4A2A60E9E70E4A16
:101440002A60E6E70F4A2A60E3E74FF0FF33E0E760
:101450004FF0FF33DDE74FF0FF33DAE74FF0FF33B4
:10146000D7E700BF000020410000C841000048420B
:101470000000C842000048430000C8430080CA443E
:101480000000A8450000A84410B582B00C460DF13C
:1014900007011C3000F09EFBB0B902469DF80730F2
:1014A000032B14D8DFE803F002070A0D094B236071
:1014B000104602B010BD084B2360F9E7074B2360CC
:1014C000F6E7074B2360F3E74FF0FF32F0E74FF00A
:1014D000FF32EDE748E17A3F9A99F93F9A997940CE
:1014E0001F853B4110B582B00C460DF107011C3041
:1014F00000F070FBB0B902469DF80730032B14D8FA
:10150000DFE803F002070A0D094B2360104602B022
:1015100010BD084B2360F9E7074B2360F6E7074B44
:101520002360F3E74FF0FF32F0E74FF0FF32EDE7D3
:101530009A997940713DFA407B147A419A993B42DD
:1015400010B582B00C460DF107011C3000F042FBD3
:10155000B0B902469DF80730032B14D8DFE803F03A
:1015600002070A0D094B2360104602B010BD084B5C
:101570002360F9E7074B2360F6E7074B2360F3E7A7
:101580004FF0FF32F0E74FF0FF32EDE77B147A4186
:101590007B14FA417B147A427B943B4330B583B091
:1015A00004460D460DF107011C3000F07DFA48BBE2
:1015B0009DF80730012B11D033B1022B18D04FF01A
:1015C000FF33184603B030BD29462046FFF75CFFC5
:1015D00003460028F5D04FF0FF33F2E729462046B6
:1015E000FFF780FF03460028EBD04FF0FF33E8E71A
:1015F00029462046FFF7A4FF03460028E1D04FF01C
:10160000FF33DEE74FF0FF33DBE710B582B00C4667
:101610000DF107011C3000F0DDFAB0B902469DF86B
:101620000730032B14D8DFE803F002070A0D02236A
:101630002360104602B010BD04232360F9E708239D
:101640002360F6E710232360F3E74FF0FF32F0E763
:101650004FF0FF32EDE770B584B00C4600F11C0688
:101660000DF10701304600F01FFA38BB9DF8073036
:10167000012B1ED023B1022B1DD04FF0FF3215E0FD
:10168000102502A9304600F0E3FA0246C8B9BDF9B8
:10169000083093FBF5F32380BDF90A3093FBF5F393
:1016A0006380BDF90C3093FBF5F5A580104604B0BE
:1016B00070BD4025E5E74FF48075E2E74FF0FF325B
:1016C000F4E74FF0FF32F1E730B585B005460C4640
:1016D0000023019302A9FFF7BEFF70BB01A92846B2
:1016E000FFF75CFF034658BBBDF9082007EE102A40
:1016F000B8EEC77ADDED017A27EE277ABDEEC77A1C
:1017000084ED007ABDF90A2007EE102AB8EEC77AF8
:1017100027EE277ABDEEC77A84ED017ABDF90C2059
:1017200007EE102AB8EEC77A67EE877AFDEEE77A01
:10173000C4ED027A184605B030BD4FF0FF33F9E72B
:101740004FF0FF33F6E790F82930012B0CD010B59D
:10175000044600211C3000F09AFA034638B90122F1
:1017600084F82920184610BD0023184670474FF012
:10177000FF33F7E790F8293013B900231846704774
:1017800010B5044602211C3000F081FA034620B94E
:10179000002284F82920184610BD4FF0FF33FAE7E5
:1017A00010B50446FFF7E6FF28B90346002284F887
:1017B0002820184610BD4FF0FF33FAE708B5F2EEC7
:1017C000047AB4EEE70AF1EE10FA0FD9F3EE047AD8
:1017D000B4EEE70AF1EE10FA10D9DFED0C7AB4EEB0
:1017E000E70AF1EE10FA0BD8022100E000211C30CC
:1017F00000F069FA034628B9184608BD0121F6E74A
:101800000321F4E74FF0FF33F6E700BF0000484242
:1018100038B5054600F11C040121204600F091FA7C
:10182000A0B90221204600F032FA90B903212046E7
:1018300000F049FA80B90021204600F0CBFA0346B7
:1018400068B9012285F82820184638BD4FF0FF33CB
:10185000FAE74FF0FF33F7E74FF0FF33F4E74FF0CD
:10186000FF33F1E708B51C3000F0ADFA034608B9C4
:10187000184608BD4FF0FF33FAE7000010B582B0FC
:101880000C460DF107011C3000F039FAB0B90246E0
:101890009DF80730032B14D8DFE803F002070A0D88
:1018A000094B2360104602B010BD084B2360F9E7D6
:1018B000074B2360F6E7074B2360F3E74FF0FF3257
:1018C000F0E74FF0FF32EDE7000020410000A041BB
:1018D000000048420000C84210B582B00C4669467C
:1018E0001C3000F04AFA60B90346BDF9002022809E
:1018F000BDF902206280BDF90420A280184602B022
:1019000010BD4FF0FF33F9E770B584B006460C46C2
:1019100002A91C3000F031FA68BB054601A9304627
:10192000FFF7B2FBBDF9083007EE103AB8EEC77A00
:10193000DDED017A27EE277ABDEEC77A84ED007AD5
:10194000BDF90A3007EE103AB8EEC77A27EE277ACB
:10195000BDEEC77A84ED017ABDF90C3007EE103A7E
:10196000B8EEC77A67EE877AFDEEE77AC4ED027AC1
:10197000284604B070BD4FF0FF35F9E710B582B0CE
:1019800002AC04F8012D012322461C3000F087F838
:10199000034610B9184602B010BD4FF0FF33F9E707
:1019A00000282CD010B504460A68026048686060C0
:1019B0008868A060087B20730869206148696061BD
:1019C0008969A161134921621349E1616462D2B15D
:1019D00090470346D0B9A268012A01D0184610BD2D
:1019E00094F82820002AF9D1012223212046FFF76C
:1019F000C5FF03460028F1D04FF0FF33EEE74FF06C
:101A0000FF33184670474FF0FF33E7E74FF0FF33DF
:101A1000E4E700BF251100084311000800282AD080
:101A200010B504460A680260486860608868A06073
:101A3000087B207308692061486960618969A16138
:101A4000124921621249E1616462C2B190470346C2
:101A5000C0B9A26812B194F828200AB1184610BD86
:101A6000012104F11C0000F0EDF903460028F5D037
:101A70004FF0FF33F2E74FF0FF33184670474FF057
:101A8000FF33EBE74FF0FF33E8E700BF61110008D9
:101A90007F11000810B544688068A04710BD10B5DC
:101AA00004688068A04710BD30B583B005460C4679
:101AB00001236A462021FFF7EDFF034660B19DF840
:101AC000002012F0080F0FD19DF8042012F0080F2B
:101AD0000FD10122227009E0012301AA2321284607
:101AE000FFF7D8FF0346EAE702222270184603B048
:101AF00030BD00222270F9E730B583B004460D46B0
:101B0000012301AA2021FFF7C5FF034610B11846A3
:101B100003B030BD9DF8043065F3071302AA02F844
:101B2000043D012320212046FFF7B9FF0346EEE7DD
:101B300010B582B00C46012301AA2021FFF7AAFFAD
:101B40009DF804301B09092B25D8DFE803F00509AF
:101B50000C0F1215181B1E210023237002B010BD9C
:101B600001232370FAE702232370F7E7032323708E
:101B7000F4E704232370F1E705232370EEE706233F
:101B80002370EBE707232370E8E708232370E5E7DA
:101B900009232370E2E700232370DFE730B583B029
:101BA00004460D46012301AA2321FFF773FF0346D4
:101BB00010B1184603B030BD9DF8043065F305132D
:101BC00002AA02F8043D012323212046FFF767FF04
:101BD0000346EEE710B582B00C46012301AA23218B
:101BE000FFF758FF9DF80430C3F30113032B10D8FF
:101BF000DFE803F00206090C0023237002B010BDD9
:101C000001232370FAE702232370F7E703232370ED
:101C1000F4E700232370F1E730B583B004460D46A6
:101C2000012301AA2321FFF735FF034610B118460F
:101C300003B030BD9DF8043065F3C71302AA02F863
:101C4000043D012323212046FFF729FF0346EEE749
:101C500010B582B00C4606236A462821FFF71AFF0A
:101C60009DF801209DF8003003EB022323809DF8AE
:101C700003209DF8023003EB022363809DF80520CA
:101C80009DF8043003EB0223A38002B010BD30B5F1
:101C900083B004460D46012301AA6021FFF7FAFE36
:101CA000034610B1184603B030BD9DF8043065F30B
:101CB000010302AA02F8043D012360212046FFF738
:101CC000EEFE0346EEE730B583B004460D46012331
:101CD00001AA6021FFF7DEFE034610B1184603B0EB
:101CE00030BD9DF8043065F3830302AA02F8043D79
:101CF000012360212046FFF7D2FE0346EEE710B530
:101D000082B00C46012301AA6021FFF7C3FE9DF8B3
:101D10000430C3F38103032B10D8DFE803F002067D
:101D2000090C0023237002B010BD01232370FAE7D1
:101D300002232370F7E703232370F4E700232370C3
:101D4000F1E730B583B004460D46012301AA6221B4
:101D5000FFF7A0FE034610B1184603B030BD9DF852
:101D6000043065F3041302AA02F8043D0123622142
:101D70002046FFF794FE0346EEE710B582B00C460E
:101D800006236A466821FFF785FE9DF801209DF82D
:101D9000003003EB022323809DF803209DF80230DE
:101DA00003EB022363809DF805209DF8043003EBCC
:101DB0000223A38002B010BD08B501230A460F21FB
:101DC000FFF768FE08BD08B501230A464F21FFF75B
:101DD00061FE08BD30B583B004460D46012301AA5B
:101DE0006221FFF757FE034610B1184603B030BD1D
:101DF0009DF8043065F3410302AA02F8043D012373
:101E000062212046FFF74BFE0346EEE730B583B074
:101E100004460D46012301AA2E21FFF73BFE03468F
:101E200010B1184603B030BD9DF8043065F3871338
:101E300002AA02F8043D01232E212046FFF72FFEBF
:101E40000346EEE730B583B004460D46012301AAF0
:101E50006221FFF71FFE034610B1184603B030BDE4
:101E60009DF8043065F3451302AA02F8043D0123EE
:101E700062212046FFF713FE0346EEE701230B70B5
:101E80004B7000208870C8704FF4FA634B601023C9
:101E90008B60C860024B0B614B6100238B61704704
:101EA0000020D045F2EE097AB4EEE70AF1EE10FA1E
:101EB0003BD9F3EE0A7AB4EEE70AF1EE10FA39D91B
:101EC000DFED237AB4EEE70AF1EE10FA34D9DFED54
:101ED000217AB4EEE70AF1EE10FA2FD9DFED1E7A7F
:101EE000B4EEE70AF1EE10FA2AD9DFED1C7AB4EE6F
:101EF000E70AF1EE10FA25D9DFED197AB4EEE70A18
:101F0000F1EE10FA20D9DFED177AB4EEE70AF1EE20
:101F100010FA1BD9DFED147AB4EEE70AF1EE10FAED
:101F200001D90A2302E0092300E0012380F82B30C5
:101F3000002070470223F9E70323F7E70423F5E7BE
:101F40000523F3E70623F1E70723EFE70823EDE78F
:101F5000000050420000D042000050430000D04337
:101F6000004050440080CF4400205045F2EE097AF2
:101F7000B4EEE70AF1EE10FA3BD9F3EE0A7AB4EECA
:101F8000E70AF1EE10FA39D9DFED237AB4EEE70A69
:101F9000F1EE10FA34D9DFED217AB4EEE70AF1EE72
:101FA00010FA2FD9DFED1E7AB4EEE70AF1EE10FA3F
:101FB0002AD9DFED1C7AB4EEE70AF1EE10FA25D942
:101FC000DFED197AB4EEE70AF1EE10FA20D9DFED71
:101FD000177AB4EEE70AF1EE10FA1BD9DFED147AA6
:101FE000B4EEE70AF1EE10FA01D90A2302E0092360
:101FF00000E0012380F82C30002070470223F9E72D
:102000000323F7E70423F5E70523F3E70623F1E7C6
:102010000723EFE70823EDE7000050420000D0421D
:10202000000050430000D043004050440080CF44A3
:102030000020504510B54469007BA04710BD10B585
:102040000469007BA04710BD90F82930012B0DD00A
:1020500010B5044690F82B101C3000F0A3FC03468A
:1020600038B9012284F82920184610BD00231846EB
:1020700070474FF0FF33F7E708B5F2EE097AB4EE98
:10208000E70AF1EE10FA39D9F3EE0A7AB4EEE70A6C
:10209000F1EE10FA3AD9DFED277AB4EEE70AF1EE65
:1020A00010FA35D9DFED247AB4EEE70AF1EE10FA32
:1020B00030D9DFED227AB4EEE70AF1EE10FA2BD92F
:1020C000DFED1F7AB4EEE70AF1EE10FA26D9DFED64
:1020D0001D7AB4EEE70AF1EE10FA21D9DFED1A7A93
:1020E000B4EEE70AF1EE10FA1CD9DFED187AB4EE7F
:1020F000E70AF1EE10FA17D8092100E001211C309F
:1021000000F050FC034688B9184608BD0221F6E7E6
:102110000321F4E70421F2E70521F0E70621EEE7C9
:102120000721ECE70821EAE70A21E8E74FF0FF334F
:10213000EAE700BF000050420000D04200005043D8
:102140000000D043004050440080CF440020504560
:1021500008B590F82930012B02D0FFF7A3FE08BD87
:10216000FFF78AFFFBE708B5022905DD04290BDD2F
:1021700008290BDC032100E000211C3000F0D4FB17
:10218000034628B9184608BD0221F6E70121F4E705
:102190004FF0FF33F6E790F82A30012B0DD010B541
:1021A000044690F82C101C3000F098FC034638B917
:1021B000012284F82A20184610BD002318467047D3
:1021C0004FF0FF33F7E7000008B5F2EE097AB4EEFE
:1021D000E70AF1EE10FA39D9F3EE0A7AB4EEE70A1B
:1021E000F1EE10FA3AD9DFED277AB4EEE70AF1EE14
:1021F00010FA35D9DFED247AB4EEE70AF1EE10FAE1
:1022000030D9DFED227AB4EEE70AF1EE10FA2BD9DD
:10221000DFED1F7AB4EEE70AF1EE10FA26D9DFED12
:102220001D7AB4EEE70AF1EE10FA21D9DFED1A7A41
:10223000B4EEE70AF1EE10FA1CD9DFED187AB4EE2D
:10224000E70AF1EE10FA17D8092100E001211C304D
:1022500000F044FC034688B9184608BD0221F6E7A1
:102260000321F4E70421F2E70521F0E70621EEE778
:102270000721ECE70821EAE70A21E8E74FF0FF33FE
:10228000EAE700BF000050420000D0420000504387
:102290000000D043004050440080CF44002050450F
:1022A00008B590F82A30012B02D0FFF75FFE08BD79
:1022B000FFF78AFFFBE738B5054600F11C04012152
:1022C000204600F0C2FC48BB0121204600F05CFC27
:1022D00038BB0021204600F0D4FC28BB042385F83D
:1022E0002B300021204600F05DFB00BB0021204682
:1022F00000F01AFBF0B9042385F82C3000212046A9
:1023000000F0ECFBC8B90621204600F0A4FB034610
:10231000B0B9012285F82820184638BD4FF0FF33A8
:10232000FAE74FF0FF33F7E74FF0FF33F4E74FF0F2
:10233000FF33F1E74FF0FF33EEE74FF0FF33EBE70A
:102340004FF0FF33E8E708B57D2909DDFA290FDDF5
:10235000B1F5FA7F0EDDB1F57A7F0DDC042100E0E6
:1023600001211C3000F077FB034638B9184608BD40
:102370000021F6E70221F4E70621F2E74FF0FF33F0
:10238000F4E708B51C3000F059FC034608B91846BC
:1023900008BD4FF0FF33FAE738B590F8293013B98C
:1023A0000023184638BD044600F11C0500F12B013E
:1023B000284600F013FB48B90021284600F0F2FA45
:1023C000034630B9002284F82920EAE74FF0FF33B2
:1023D000E7E74FF0FF33E4E710B582B00C460DF1AC
:1023E00007011C3000F0FAFA002832D102469DF8AD
:1023F00007300B2B30D8DFE803F0060E1114171A44
:102400001D202326290B00232360104602B010BD97
:10241000134B2360F9E7134B2360F6E7124B23605D
:10242000F3E7124B2360F0E7114B2360EDE7114B0C
:102430002360EAE7104B2360E7E7104B2360E4E7F3
:102440000F4B2360E1E70F4B2360DEE70E4B236069
:10245000DBE74FF0FF32D8E74FF0FF32D5E700BFA0
:10246000CDCCCC3F000048410000D041000050429C
:102470000000D042000050430000D04300405044D0
:102480000080CF44002050450020D04510B582B0D8
:102490000C460DF107011C3000F062FAB0B902469B
:1024A0009DF80730032B14D8DFE803F0020D070A6C
:1024B000094B2360104602B010BD084B2360F9E7BA
:1024C000074B2360F6E7074B2360F3E74FF0FF323B
:1024D000F0E74FF0FF32EDE723DB793D23DBF93DF9
:1024E00023DB793E23DBF93E10B582B00C460DF1BB
:1024F00007011C3000F034FAB0B902469DF80730ED
:10250000032B14D8DFE803F0020D070A022323602F
:10251000104602B010BD04232360F9E708232360AE
:10252000F6E710232360F3E74FF0FF32F0E74FF0B8
:10253000FF32EDE710B582B00C4669461C3000F062
:102540005EFB60B90346BDF900202280BDF9022080
:102550006280BDF90420A280184602B010BD4FF081
:10256000FF33F9E730B585B005460C4600230193EB
:1025700002A91C3000F043FB70BB01A92846FFF7FD
:1025800085FF034658BBBDF9082007EE102AB8EEB8
:10259000C77ADDED017A27EE277ABDEEC77A84EDA2
:1025A000007ABDF90A2007EE102AB8EEC77A27EEA6
:1025B000277ABDEEC77A84ED017ABDF90C2007EECB
:1025C000102AB8EEC77A67EE877AFDEEE77AC4ED97
:1025D000027A184605B030BD4FF0FF33F9E74FF0EF
:1025E000FF33F6E738B590F82A3013B900231846C0
:1025F00038BD044600F11C0500F12C01284600F00E
:1026000089FA48B90021284600F068FA034630B933
:10261000002284F82A20EAE74FF0FF33E7E74FF083
:10262000FF33E4E710B50446FFF7B6FE68B920466D
:10263000FFF7D8FF024658B9002384F82B3084F8FE
:102640002C3084F82830104610BD4FF0FF32FAE7E6
:102650004FF0FF32F7E7000010B582B00C460DF1E5
:1026600007011C3000F056FA00282FD102469DF8D1
:1026700007300A2B2DD8DFE803F0060B0E111417D4
:102680001A1D2023260000232360104602B010BD2F
:10269000114B2360F9E7114B2360F6E7104B2360E1
:1026A000F3E7104B2360F0E70F4B2360EDE70F4B90
:1026B0002360EAE70E4B2360E7E70E4B2360E4E775
:1026C0000D4B2360E1E70D4B2360DEE74FF0FF3257
:1026D000DBE74FF0FF32D8E7000048410000D0416F
:1026E000000050420000D042000050430000D043A0
:1026F000004050440080CF44002050450020D04589
:1027000010B582B00C460DF107011C3000F0BFF986
:10271000D8B902469DF80730062B19D8DFE803F038
:1027200009040C180F1812000B4B2360104602B05E
:1027300010BD0A4B2360F9E7094B2360F6E7094B0C
:102740002360F3E7084B2360F0E74FF0FF32EDE73B
:102750004FF0FF32EAE700BF00008C4000000C4160
:1027600000008C4100000C4200008C4210B582B089
:102770000C460DF107011C3000F089F9F0B9024652
:102780009DF80730062B1CD8DFE803F009040C1B6A
:10279000101B14007D232360104602B010BDFA23E5
:1027A0002360F9E74FF4FA732360F5E74FF47A7387
:1027B0002360F1E74FF4FA632360EDE74FF0FF3257
:1027C000EAE74FF0FF32E7E710B582B00C46694602
:1027D0001C3000F0F5F960B90346BDF900202280F5
:1027E000BDF902206280BDF90420A280184602B023
:1027F00010BD4FF0FF33F9E730B585B005460C4604
:1028000002A91C3000F0DCF970BB01A92846FFF7D3
:1028100077FF034658BBBDF9082007EE102AB8EE33
:10282000C77ADDED017A27EE277ABDEEC77A84ED0F
:10283000007ABDF90A2007EE102AB8EEC77A27EE13
:10284000277ABDEEC77A84ED017ABDF90C2007EE38
:10285000102AB8EEC77A67EE877AFDEEE77AC4ED04
:10286000027A184605B030BD4FF0FF33F9E74FF05C
:10287000FF33F6E710B582B002AC04F8012D012356
:1028800022461C3000F04BF8034610B9184602B03F
:1028900010BD4FF0FF33F9E700282CD010B50446E7
:1028A0000A680260486860608868A060087B2073DE
:1028B00008692061486960618969A16113492162E1
:1028C0001349E1616462D2B190470346D0B9A2686E
:1028D000022A01D0184610BD94F82820002AF9D108
:1028E0000C2212212046FFF7C5FF03460028F1D035
:1028F0004FF0FF33EEE74FF0FF33184670474FF0CD
:10290000FF33E7E74FF0FF33E4E700BF352000086F
:102910003F20000810B544688068A04710BD10B57E
:1029200004688068A04710BD30B583B004460D46EA
:10293000012301AA1021FFF7EDFF034610B118464D
:1029400003B030BD9DF8043065F3830302AA02F89A
:10295000043D012310212046FFF7E1FF0346EEE787
:1029600010B582B00C46012301AA1021FFF7D2FF57
:102970009DF80430C3F38103032B10D8DFE803F084
:102980000206090C0023237002B010BD012323703E
:10299000FAE702232370F7E703232370F4E7042305
:1029A0002370F1E730B583B004460D46012301AA38
:1029B0001021FFF7AFFF034610B1184603B030BD3A
:1029C0009DF8043065F3071302AA02F8043D0123C1
:1029D00010212046FFF7A3FF0346EEE710B582B0B3
:1029E0000C46012301AA1021FFF794FF9DF8043043
:1029F0001B090B2B2CD8DFE803F0060A0D10131669
:102A0000191C1F2225280023237002B010BD0123AA
:102A10002370FAE702232370F7E703232370F4E718
:102A200004232370F1E705232370EEE706232370C8
:102A3000EBE707232370E8E708232370E5E7092382
:102A40002370E2E70A232370DFE70B232370DCE720
:102A50000C232370D9E730B583B004460D4601231B
:102A600001AA1121FFF756FF034610B1184603B023
:102A700030BD9DF8043065F3430302AA02F8043D1B
:102A8000012311212046FFF74AFF0346EEE710B568
:102A900082B00C46012301AA1121FFF73BFF9DF8EC
:102AA0000430C3F34203062B15D8DFE803F0040813
:102AB0000B140E1411000023237002B010BD01236B
:102AC0002370FAE702232370F7E704232370F4E767
:102AD00006232370F1E707232370EEE730B583B0B8
:102AE00004460D46012301AA1121FFF713FF0346F7
:102AF00010B1184603B030BD9DF8043065F30713DC
:102B000002AA02F8043D012311212046FFF707FF26
:102B10000346EEE710B582B00C46012301AA11214D
:102B2000FFF7F8FE9DF804301B090A2B29D8DFE8CF
:102B300003F0060A0D101316191C1F22250000238E
:102B4000237002B010BD01232370FAE70223237023
:102B5000F7E703232370F4E704232370F1E7052349
:102B60002370EEE706232370EBE707232370E8E7E3
:102B700008232370E5E709232370E2E70A23237083
:102B8000DFE70B232370DCE730B583B004460D4646
:102B9000012301AA1221FFF7BDFE034610B118461A
:102BA00003B030BD9DF8043065F3861302AA02F825
:102BB000043D012312212046FFF7B1FE0346EEE754
:102BC00010B582B00C4606236A462221FFF7A2FE0A
:102BD0009DF801209DF8003003EB022323809DF82F
:102BE00003209DF8023003EB022363809DF805204B
:102BF0009DF8043003EB0223A38002B010BD10B592
:102C000082B00C4606236A462821FFF783FE9DF812
:102C100001209DF8003003EB022323809DF8032060
:102C20009DF8023003EB022363809DF805209DF898
:102C3000043003EB0223A38002B010BD08B50123CA
:102C40000A460F21FFF766FE08BD30B583B0044683
:102C50000D46012301AA1221FFF75CFE034610B1C5
:102C6000184603B030BD9DF8043065F3820302AA14
:102C700002F8043D012312212046FFF750FE0346CF
:102C8000EEE730B583B004460D46012301AA0A21C0
:102C9000FFF740FE034610B1184603B030BD9DF863
:102CA000043065F3020302AA02F8043D01230A215D
:102CB0002046FFF734FE0346EEE7000070B590B003
:102CC000054600230B93D7238DF83030324B099300
:102CD000324B0A93324B0E93324B0D93324B0F9380
:102CE00009A93248FFF7D8FD002848D10DF123018A
:102CF0002E48FFF746FB0646002843D19DF82330B7
:102D00006A2B42D1294C01A92046FFF7B7F89DF85C
:102D100005209DF8043042EA43039DF8061043EA7B
:102D200081032363224B1C60224BE36315F0010FE8
:102D300008D0012A06D120461F4BA3641D4B1B68F7
:102D4000984798B915F0020F12D09DF80430012B66
:102D50000ED1164B194ADA64DB6B1B68144A1068F3
:102D60009847064628B16FF0040605E06FF00406A8
:102D700016B915F0040F0BD1304610B070BD6FF0CE
:102D80000606F9E76FF00606F6E76FF00606F3E7CA
:102D90006FF00406F0E700BFA10F0008B50E0008B1
:102DA000290F0008ED0E0008650F0008E80200205A
:102DB0002406002038020020F00100201402002028
:102DC000F0B591B0064600230B9333238DF83030D5
:102DD0002C4B09932C4B0A932C4B0E932C4B0D939D
:102DE0002C4B0F9309A92C48FEF7DAFD00283AD1A5
:102DF0000DF123012848FEF781FA0546002835D158
:102E00009DF82330332B34D1244C04F16C0701A9F5
:102E10003846FEF715F99DF805309DF8042043EA81
:102E200042039DF8061043EA810363631C4B5F6015
:102E30001C4B236416F0020F08D0012A06D11A4B4E
:102E4000A365184B1B683846984748B916F0010F20
:102E500012D115B916F0040F11D1284611B0F0BDEA
:102E60006FF00405F5E76FF00605F6E76FF006056D
:102E7000F3E76FF00605F0E76FF00405EDE76FF09C
:102E80000405EAE7A10F0008B50E0008290F0008A5
:102E9000ED0E0008650F000854030020E802002032
:102EA00024060020E0010020BC010020F0B591B014
:102EB000064600230B933D238DF830302C4B0993AD
:102EC0002C4B0A932C4B0E932C4B0D932C4B0F93A6
:102ED00009A92C48FEF7A2FD00283AD10DF12301E3
:102EE0002848FEF7BFFC0546002835D19DF8233061
:102EF000402B34D1244C04F1980701A93846FEF741
:102F0000B1F89DF805309DF8042043EA42039DF88E
:102F1000062043EA8203A3631C4B9F601C4B63643F
:102F200016F0040F08D0012A06D11A4BA366184BDD
:102F30001B683846984748B916F0020F12D115B9E8
:102F400016F0010F11D1284611B0F0BD6FF0040545
:102F5000F5E76FF00605F6E76FF00605F3E76FF0AB
:102F60000605F0E76FF00405EDE76FF00405EAE70A
:102F7000A10F0008B50E0008290F0008ED0E00088B
:102F8000650F000880030020E802002024060020CE
:102F9000AC010020880100202DE9F04188B00646F0
:102FA0000F46012831D020B1022856D06FF0010021
:102FB00099E00846FFF782FE002840F09780544BC6
:102FC00003EB8603DB6BDB6801A9524A52F826004B
:102FD0009847002840F08D809DF80430012B0BD0DD
:102FE000B0469DF80530012B09D09DF80630012B25
:102FF00008D00025012459E04FF00208F1E748F01D
:103000000108F2E748F00408F3E70846FFF7D8FEA6
:10301000002871D13E4B03EB8603DB6BDB6801A913
:103020003C4A52F826009847002868D19DF80430A1
:10303000012B0CD04FF000089DF80530012B09D072
:103040009DF80630012BD4D148F00408D1E74FF0A9
:103050000208F1E748F00108F2E70846FFF726FF0B
:1030600000284FD12A4B03EB8603DB6BDB6801A9F9
:10307000284A52F826009847002846D19DF8043087
:10308000012B0CD04FF000089DF80530012B08D023
:103090009DF80630012BACD148F00408A9E7B046F2
:1030A000F2E748F00108F3E764000135022D19D872
:1030B00034EA0703F8D134EA0803F5D1164B53F884
:1030C000242006EB46031A44114B03EB82039B6C4E
:1030D0001B68104A52F8260098470028E4D06FF089
:1030E000040000E0002008B0BDE8F0814FF0FF30A0
:1030F000F9E76FF00600F6E74FF0FF30F3E76FF007
:103100000600F0E74FF0FF30EDE76FF00600EAE76A
:10311000E8020020240600204C5B000808B50228C5
:103120001CD8114B03EB80031B6B31EA030318D14E
:103130000E4B53F8212000EB40031A440A4B03EBDB
:1031400082039B6C1B680A4A52F82000984703468A
:1031500008B9184608BD6FF00403FAE76FF00103E1
:10316000F7E76FF00103F4E7E80200204C5B00088A
:103170002406002002281FD810B50B46124C04EB81
:103180008004216B33EA01011AD111460F4A52F82B
:10319000232000EB40031A440B4B03EB82039B6C90
:1031A000DB690B4A52F820009847034608B91846D5
:1031B00010BD6FF00403FAE76FF001031846704783
:1031C0006FF00103F3E700BFE80200204C5B00084A
:1031D0002406002002281FD810B50B46124C04EB21
:1031E0008004216B33EA01011AD111460F4A52F8CB
:1031F000232000EB40031A440B4B03EB82039B6C30
:103200009B680B4A52F820009847034608B91846B5
:1032100010BD6FF00403FAE76FF001031846704722
:103220006FF00103F3E700BFE80200204C5B0008E9
:103230002406002002281FD810B50B46124C04EBC0
:103240008004216B33EA01011AD111460F4A52F86A
:10325000232000EB40031A440B4B03EB82039B6CCF
:10326000DB680B4A52F820009847034608B9184615
:1032700010BD6FF00403FAE76FF0010318467047C2
:103280006FF00103F3E700BFE80200204C5B000889
:103290002406002002281FD810B50B46124C04EB60
:1032A0008004216B33EA01011AD111460F4A52F80A
:1032B000232000EB40031A440B4B03EB82039B6C6F
:1032C0005B690B4A52F820009847034608B9184634
:1032D00010BD6FF00403FAE76FF001031846704762
:1032E0006FF00103F3E700BFE80200204C5B000829
:1032F0002406002010B504460E4B18784FF47A735C
:10330000B3FBF0F30C4A1068B0FBF3F000F096F852
:1033100068B90F2C01D901200AE0002221464FF0A4
:10332000FF3000F049F8034B5C60002000E0012012
:1033300010BD00BF480200208401002008B50B4BDF
:103340001A6842F400721A601A6842F480621A60C5
:103350001A6842F480721A60032000F01BF8002003
:10336000FFF7C8FFFDF7AEFC002008BD003C02409F
:10337000034A1168034B1B780B441360704700BF6E
:103380003006002048020020014B1868704700BF3B
:1033900030060020074AD36823F4E0631B041B0CAB
:1033A000000200F4E060184340F0BF6040F40030D9
:1033B000D060704700ED00E030B4174BDB68C3F31A
:1033C0000223C3F10704042C28BF04241D1D062D6D
:1033D00018D9033B4FF0FF3505FA04F421EA040144
:1033E000994005FA03F322EA0303194300280BDB93
:1033F0000901C9B200F1604000F5614080F8001396
:1034000030BC70470023E5E700F00F000901C9B2A6
:10341000024B1954F4E700BF00ED00E014ED00E0AA
:10342000002807DB00F01F02400901239340024AF5
:1034300042F82030704700BF00E100E00138B0F1F1
:10344000807F0AD2064B5860064AF02182F823108A
:103450000020986007221A6070470120704700BF63
:1034600010E000E000ED00E090F83530DBB2022B18
:1034700003D08023436501207047052380F8353051
:103480000268136823F001031360002070470000F6
:1034900000230F2B00F2C580F0B583B039E0042281
:1034A00000E00022AA403A4302345E4D45F8242051
:1034B0005D4A1468F24302EA04054F6817F4803F3E
:1034C00001D046EA0405584C2560646802EA040508
:1034D0004F6817F4003F01D046EA0405524C65607E
:1034E000A46802EA04054F6817F4801F01D046EA79
:1034F00004054D4CA560E46822404D6815F4001F9A
:1035000001D046EA0402484CE26001330F2B00F27E
:10351000868001229A400C6804EA0206B242F4D185
:103520004C68651E012D03D9112C01D0122C12D12B
:1035300085685F000324BC4025EA0405CC68BC40D4
:103540002C438460456825EA02054C68C4F30012E8
:103550009A402A434260C4685F000322BA40D243C3
:1035600014408D68BD402543C5604C68022C01D0D5
:10357000122C13D1DD08083550F825E003F00704BC
:103580004FEA840C0F2404FA0CF42EEA040E0C69A2
:1035900004FA0CF444EA0E0440F825400468224082
:1035A0004C6804F00304BC40224302604A6812F0F5
:1035B000805FAAD0002201921C4A546C44F48044DB
:1035C0005464526C02F480420192019A9C08A51C3A
:1035D000144A52F8257003F0030295000F22AA4006
:1035E00027EA0207124A90423FF45BAF02F580627D
:1035F00090420ED002F5806290420CD002F58062BB
:1036000090420AD002F5806290423FF448AF072210
:1036100048E7012246E7022244E7032242E703B0DB
:10362000F0BD704700380140003C014000380240C6
:103630000000024000230F2B75D8F0B529E00427C5
:1036400000E0002707FA05F5B54253D005685E0093
:103650000324B440E44325400560DD08083550F8F4
:10366000256003F007074FEA870C0F2707FA0CF7CE
:1036700026EA070640F82560C5682540C56045680C
:1036800025EA0202426082681440846001330F2BF5
:1036900048D801229A4002EA0104A242F6D14FEA38
:1036A000930E0EF10206204D55F8266003F0030537
:1036B000AD004FF00F0C0CFA05FC0CEA06061B4F90
:1036C000B842BED007F58067B8420DD007F58067D5
:1036D000B8420BD007F58067B84209D007F580677C
:1036E000B842ACD00727ADE70127ABE70227A9E72F
:1036F0000327A7E70E4D2E68E44326402E606E6830
:1037000026406E60AE682640AE60EE683440EC60E5
:10371000054E0EF1020456F8245025EA0C0546F831
:10372000245093E7F0BD704700380140000002408C
:10373000003C014012B90904816170478161704702
:1037400008B5054B5B69034200D108BD024B5861C7
:10375000FDF772FAF9E700BF003C014003685A69BF
:1037600012F4806F11D06FF480625A6100230363FA
:10377000202280F83D2080F83E30026C42F00402A6
:10378000026480F83C300120704700207047F8B593
:1037900006460C4617461D4622E0FFF7F5FD069B40
:1037A000C01AA84200D8DDB900233363202286F86E
:1037B0003D2086F83E30326C42F02002326486F8BA
:1037C0003C3001201AE033685B6924EA03039BB2B2
:1037D000B3FA83F35B099F420FD1B5F1FF3FDCD110
:1037E000C4F30743012BEED033689B6924EA03033B
:1037F0009BB2B3FA83F35B09EDE70020F8BDF8B59F
:1038000004460D4616461F463CE01A6842F4007214
:103810001A6023686FF480625A61002323632022B8
:1038200084F83D2084F83E30226C42F00402226489
:1038300084F83C30012033E0FFF7A6FDC01BB04206
:1038400000D8FEB900232363202284F83D2084F8A9
:103850003E30226C42F02002226484F83C30012089
:103860001EE023685B6925EA03039BB2003318BF9F
:103870000123A3B123685A6912F4806FC5D1B6F150
:10388000FF3FD9D1C5F30743012BEAD023689B69D9
:1038900025EA03039BB2003318BF0123E9E70020A8
:1038A000F8BD70B504460D46164623685B6913F0F3
:1038B000800F1CD12046FFF751FFD0B9B5F1FF3F73
:1038C000F3D0FFF761FD801BA84201D8002DECD199
:1038D00000232363202284F83D2084F83E30226CAC
:1038E00042F02002226484F83C30012000E00020F5
:1038F00070BD0120FCE700002DE9F04184B00446D2
:10390000884616461F460B9D0268136843F4807371
:10391000136000950A9B00224FF00111FFF737FF5B
:1039200060B123681B6813F4807F4FD04FF400739D
:1039300023640323184604B0BDE8F081226808F030
:10394000FE0313612B460A9A21492046FFF757FFD1
:1039500008B10123EEE70023039323685A69039219
:103960009B690393039B2A460A992046FFF799FF18
:10397000034658B1236C042B01D00123DAE72268F7
:10398000136843F4007313600123D3E7012F0ED0B3
:103990002368320A1A612A460A992046FFF781FFF6
:1039A000034678B1236C042B05D00123C2E72268BB
:1039B000F6B21661BEE72268136843F40073136021
:1039C0000123B7E72268F6B21661B3E70323B1E734
:1039D000020001002DE9F04184B004460E4617466E
:1039E00098460B9D0268136843F480631360026875
:1039F000136843F48073136000950A9B00224FF014
:103A00000111FFF7C4FE68B123681B6813F4807FBF
:103A100000F089804FF4007323640323184604B038
:103A2000BDE8F081F6B2236806F0FE021A612B466B
:103A30000A9A3F492046FFF7E2FE08B10123EDE76D
:103A40000023039323685A6903929B690393039BA2
:103A50002A460A992046FFF724FF58B1236C042B0D
:103A600001D00123DAE72268136843F4007313607E
:103A70000123D3E7B8F1010F0DD12368FFB21F6115
:103A80002A460A992046FFF70CFF20B3236C042B2B
:103A90001AD00123C2E723683A0A1A612A460A9912
:103AA0002046FFF7FEFE58B1236C042B01D0012302
:103AB000B4E72268136843F4007313600123ADE791
:103AC0002368FFB21F61DBE72268136843F40073C9
:103AD00013600123A2E72268136843F48073136024
:103AE00000950A9B00224FF001112046FFF74FFE80
:103AF00048B123681B6813F4807F16D04FF400731D
:103B0000236403238AE7236846F001061E612B46DF
:103B10000A9A07492046FFF772FE034600283FF441
:103B20007DAF01237AE7032378E7032376E700BF1D
:103B30000200010070B504460D46164623685B6915
:103B400013F0040F1CD12046FFF708FED0B9B5F1E1
:103B5000FF3FF3D0FFF718FC801BA84201D8002DCF
:103B6000ECD100232363202284F83D2084F83E30EA
:103B7000226C42F02002226484F83C30012000E0F4
:103B8000002070BD0120FCE770B505460C461646C6
:103B90002B685A6912F0400F29D15A6912F0100FA0
:103BA00015D1FFF7F1FB801BA04201D8002CEFD10B
:103BB00000232B63202285F83D2085F83E302A6CB7
:103BC00042F020022A6485F83C30012070BD6FF07D
:103BD00010025A6100232B63202285F83D2085F8CE
:103BE0003E302A6C2A6485F83C300120EEE7002044
:103BF000ECE77047002800F0C880F8B5044690F85C
:103C00003D30002B75D0242384F83D3022681368A2
:103C100023F0010313602268136843F40043136028
:103C20002268136823F40043136000F011FE6268F9
:103C3000584B9A4262D8584B98428CBF00230123BC
:103C4000002B40F0A480554BA3FB00239B0C216864
:103C50004A6822F03F021A434A6025682A6A22F025
:103C60003F0266684B498E424ED8013313432B62A4
:103C70002568E96921F44F4121F0FF016368454A55
:103C800093424BD801385B00B0FBF3F30133C3F32D
:103C90000B03042B38BF04230B43EB6121680B6833
:103CA00023F0C003E269206A024313430B602168DA
:103CB0008B6823F4034323F0FF032269E068024387
:103CC00013438B602168CB6823F0FF036269A0690E
:103CD00002431343CB602268136843F0010313606F
:103CE00000202064202384F83D30206384F83E00C7
:103CF000F8BD80F83C30FFF77CFF84E7284B984202
:103D00008CBF002301239BE74FF4967101FB03F363
:103D10002449A1FB03139B090133A7E7A268BAB9A1
:103D2000461E03EB4307B6FBF7F60136C6F30B0658
:103D3000B6FA86F6760936BBC2B9013803EB4303FF
:103D4000B0FBF3F30133C3F30B0242F40043A3E7E8
:103D5000461E03EB830707EB8707B6FBF7F6013632
:103D6000C6F30B06B6FA86F67609E4E7013803EBEC
:103D7000830303EB8303B0FBF3F20132C2F30B02C4
:103D800042F4404388E7012386E701207047012081
:103D9000AEE700BFA08601007F841E0083DE1B43C8
:103DA000FF083D00D34D62107047A8B110B504461E
:103DB000242380F83D300268136823F00103136068
:103DC000FFF7F2FF0020206484F83D00206384F8B0
:103DD0003E0084F83C0010BD012070472DE9F04101
:103DE00082B004460E4617469846FFF7CDFA94F87F
:103DF0003D30DBB2202B04D00223184602B0BDE8D0
:103E0000F08105460090192301224C492046FFF716
:103E1000BEFC002840F08B8094F83C30012B00F071
:103E20008880012384F83C3023681A6812F0010F5F
:103E300003D11A6842F001021A602268136823F461
:103E400000631360212384F83D30402384F83E3022
:103E500000232364089B6362BDF824306385638D6F
:103E60002385374BE36201950A9B009343463A460C
:103E700031462046FFF740FD00285CD1238D002B02
:103E800034D02A460A992046FFF70BFD10BB626A20
:103E9000236812781A61616A4B1C6362238D013BAF
:103EA0009BB22385628D013A92B262852268506985
:103EB00010F0040FE2D0002BE0D04B781361636A5E
:103EC00001336362238D013B2385638D013B9BB2EC
:103ED0006385D3E7236C042B01D001238DE722688F
:103EE000136843F400731360012386E72A460A9996
:103EF0002046FFF71FFE034658B1236C042B01D068
:103F000001237AE72268136843F4007313600123E6
:103F100073E721680A6842F400720A60202284F87C
:103F20003D20002284F83E2084F83C2065E70223EF
:103F300063E7022361E701235FE700BF020010008F
:103F40000000FFFF2DE9F04186B004460E461746FB
:103F50009846FFF719FA94F83D30DBB2202B04D0D5
:103F60000226304606B0BDE8F081054600901923D0
:103F700001229E492046FFF70AFC002840F03481C8
:103F800094F83C30012B00F03781012384F83C3059
:103F900023681A6812F0010F03D11A6842F0010277
:103FA0001A602268136823F400631360222384F8E4
:103FB0003D30402384F83E30002323640C9B636231
:103FC000BDF834306385638D2385894BE3620195A9
:103FD0000E9B009343463A4631462046FFF7FAFCD3
:103FE0000646002840F00A81238D5BB902932368BE
:103FF0005A6902929A690292029A1A6842F400720D
:104000001A6072E0012B0AD0022B1AD0002305930C
:1040100023685A6905929B690593059B65E02268B0
:10402000136823F4806313600023039323685A69A1
:1040300003929A690392039A1A6842F400721A6012
:1040400053E02268136823F48063136022681368C6
:1040500043F4006313600023049323685A690492B5
:104060009B690493049B40E02A460E992046FFF783
:104070008BFD002840F0C48023681A69636A1A70B7
:10408000636A01336362238D013B2385638D013BAA
:104090009BB2638529E000950E9B0022554920467E
:1040A000FFF775FB002840F0AD802268136843F4E9
:1040B0000073136023681A69636A1A70626A531C7A
:1040C0006362238D013B2385638D013B9BB2638536
:1040D00023681B695370636A01336362238D013B5C
:1040E0002385638D013B9BB26385238D002B72D0AA
:1040F000032B49D8012BB7D0022BCCD000950E9BB7
:1041000000223C492046FFF742FB00287CD1226870
:10411000136823F48063136023681A69636A1A7052
:10412000636A01336362238D013B2385638D013B09
:104130009BB2638500950E9B00222E492046FFF717
:1041400026FB002862D12268136843F400731360D1
:1041500023681A69636A1A70626A531C6362238D4A
:10416000013B2385638D013B9BB2638523681B69FB
:104170005370636A01336362238D013B2385638D32
:10418000013B9BB26385B0E72A460E992046FFF7B4
:10419000FBFC00283CD123681A69636A1A70626AC2
:1041A000531C6362238D013B2385638D013B9BB2CE
:1041B00063852368596911F0040F96D01B69537009
:1041C000636A01336362238D013B2385638D013B69
:1041D0009BB2638589E7202384F83D30002384F86F
:1041E0003E3084F83C30BCE60226BAE602001000FD
:1041F0000000FFFF040001000226B2E60126B0E63F
:104200000126AEE60126ACE60126AAE60126A8E6CE
:104210000126A6E690F83D007047006C704700004C
:10422000002800F0E48170B582B00446036813F002
:10423000010F3BD0A74B9B6803F00C03042B2CD041
:10424000A44B9B6803F00C03082B21D06368B3F5E3
:10425000803F4FD0B3F5A02F52D09E4B1A6822F466
:1042600080321A601A6822F480221A606368002B78
:1042700050D0FFF789F80546964B1B6813F4003FB2
:1042800014D1FFF781F8401B6428F5D90320B3E16E
:10429000904B5B6813F4800FD8D08E4B1B6813F4DF
:1042A000003F03D06368002B00F0A381236813F064
:1042B000020F55D0874B9B6813F00C0F3ED0854BF7
:1042C0009B6803F00C03082B33D0E368002B68D005
:1042D000814B01221A60FFF757F805467D4B1B689A
:1042E00013F0020F54D1FFF74FF8401B0228F5D905
:1042F000032081E1774A136843F480331360B5E704
:10430000744B1A6842F480221A601A6842F48032B0
:104310001A60ABE7FFF738F805466E4B1B6813F4DD
:10432000003FC3D0FFF730F8401B6428F5D90320C5
:1043300062E1684B5B6813F4800FC6D1654B1B6864
:1043400013F0020F04D0E368012B01D0012053E1E8
:10435000604A136823F0F803216943EAC10313603C
:10436000236813F0080F40D0636963B35B4B0122ED
:104370001A60FFF709F80546564B5B6F13F0020F02
:1043800033D1FFF701F8401B0228F5D9032033E1B0
:10439000504A136823F0F803216943EAC10313600C
:1043A000DEE74D4B00221A60FEF7EEFF0546494B53
:1043B0001B6813F0020FD3D0FEF7E6FF401B022864
:1043C000F5D9032018E1454B00221A60FEF7DCFF07
:1043D0000546404B5B6F13F0020F06D0FEF7D4FF8B
:1043E000401B0228F5D9032006E1236813F0040FCF
:1043F00079D0384B1B6C13F0805F33D100230193CD
:10440000344B1A6C42F080521A641B6C03F08053D8
:104410000193019B0125324B1B6813F4807F23D04D
:10442000A368012B34D0052B38D02A4B1A6F22F009
:1044300001021A671A6F22F004021A67A368002BA0
:1044400036D0FEF7A1FF0646224B1B6F13F0020F7A
:1044500048D1FEF799FF801B41F288339842F3D987
:104460000320C9E00025D6E71D4A136843F4807392
:104470001360FEF789FF0646194B1B6813F4807F13
:10448000CED1FEF781FF801B0228F5D90320B3E0CF
:10449000104A136F43F001031367CFE70D4B1A6FF8
:1044A00042F004021A671A6F42F001021A67C5E768
:1044B000FEF76AFF0646074B1B6F13F0020F11D081
:1044C000FEF762FF801B41F288339842F3D9032044
:1044D00092E000BF0038024000004742800E474291
:1044E00000700040EDB9A369002B00F08480454ABC
:1044F000926802F00C02082A51D0022B17D0424BCE
:1045000000221A60FEF740FF04463E4B1B6813F082
:10451000007F42D0FEF738FF001B0228F5D90320A8
:104520006AE0384A136C23F080531364DBE7364BA0
:1045300000221A60FEF728FF0546324B1B6813F075
:10454000007F06D0FEF720FF401B0228F5D903208C
:1045500052E0E369226A1343626A43EA8213A26A61
:104560005208013A43EA0243E26A43EA0263254AF7
:104570005360254B01221A60FEF706FF0446214BCB
:104580001B6813F0007F06D1FEF7FEFE001B022819
:10459000F5D9032030E000202EE000202CE0012B94
:1045A0002CD0184B5B6803F48001E269914201D082
:1045B000012021E003F03F02216A8A4201D001205C
:1045C0001AE0616A47F6C0721A408A4201D001209F
:1045D00012E003F44032A16A8A4201D001200BE0CC
:1045E00003F07063E26A93420AD0012004E00120E4
:1045F0007047012000E0002002B070BD0120FBE701
:104600000020F9E70038024060004742324B9B68C7
:1046100003F00C03042B5CD0082B01D02F4870470B
:104620002DE9F04B2C4B5A6802F03F025B6813F403
:10463000800F2BD0284B5B68C3F388131E460027DE
:104640005C010025E41A65EB0705A90141EA9461C4
:10465000A001001B61EB0501CB0043EA5073C400CD
:10466000A01943EB07014B0243EAD0534402204612
:1046700019460023FBF770FF174B5B68C3F3014338
:1046800001335B00B0FBF3F0BDE8F08B124B5B68CD
:10469000C3F388131E4600275C010025E41A65EB6E
:1046A0000705A90141EA9461A001001B61EB050126
:1046B000CB0043EA5073C400A01943EB07018B02FF
:1046C00043EA90538402204619460023FBF744FF37
:1046D000D2E70348704700BF003802400024F400CE
:1046E00000127A00002800F09E8070B50446504BFE
:1046F0001B6803F00F038B4209D2CBB24C4A1370F4
:10470000136803F00F038B4201D0012070BD2368B2
:1047100013F0020F17D013F0040F04D0454A93682A
:1047200043F4E0539360236813F0080F04D0414A28
:10473000936843F4604393603E4A936823F0F00328
:10474000A068034393600D46236813F0010F32D035
:104750006368012B21D09A1E012A25D9354A126897
:1047600012F0020F61D033498A6822F0030213432A
:104770008B60FEF709FE06462E4B9B6803F00C0388
:104780006268B3EB820F16D0FEF7FEFD801B41F28C
:1047900088339842F0D90320B8E7264A126812F409
:1047A000003FE0D10120B1E7224A126812F0007FF9
:1047B000D9D10120AAE71E4B1B6803F00F03AB42BF
:1047C00009D9EAB21A4B1A701B6803F00F03AB4207
:1047D00001D001209AE7236813F0040F06D0154A90
:1047E000936823F4E053E1680B439360236813F06C
:1047F000080F07D00F4A936823F46043216943EA06
:10480000C1039360FFF702FF0A4B9B68C3F30313D6
:10481000094AD35CD840094B1860094B1868FEF769
:1048200069FD002072E70120704701206EE700BF9C
:10483000003C024000380240345B00088401002044
:104840004C020020014B1868704700BF8401002013
:1048500008B5FFF7F7FF044B9B68C3F38223034AB5
:10486000D35CD84008BD00BF00380240445B00085C
:1048700008B5FFF7E7FF044B9B68C3F34233034AD5
:10488000D35CD84008BD00BF00380240445B00083C
:104890000268D36843F00103D3600268936803F0B1
:1048A0000703062B03D0136843F0010313600020B5
:1048B0007047704770477047704710B504460368EB
:1048C0001A6912F0020F11D0DA6812F0020F0DD03F
:1048D0006FF002021A610123037703689B6913F0EA
:1048E000030F70D0FFF7E6FF0023237723681A69D0
:1048F00012F0040F12D0DA6812F0040F0ED06FF02D
:1049000004021A610223237723689B6913F4407F12
:104910005FD02046FFF7CEFF0023237723681A6974
:1049200012F0080F12D0DA6812F0080F0ED06FF0F4
:1049300008021A61042323772368DB6913F0030F4D
:104940004ED02046FFF7B6FF0023237723681A696D
:1049500012F0100F12D0DA6812F0100F0ED06FF0B4
:1049600010021A61082323772368DB6913F4407F60
:104970003DD02046FFF79EFF0023237723681A6966
:1049800012F0010F03D0DA6812F0010F36D123685C
:104990001A6912F0800F03D0DA6812F0800F34D158
:1049A00023681A6912F0400F03D0DA6812F0400F42
:1049B00032D123681A6912F0200F03D0DA6812F09E
:1049C000200F30D110BDFFF774FF2046FFF773FFB3
:1049D0008AE72046FFF76DFF2046FFF76CFF9BE755
:1049E0002046FFF766FF2046FFF765FFACE720464D
:1049F000FFF75FFF2046FFF75EFFBDE76FF00102A4
:104A00001A612046FBF7DAFFC1E76FF080021A61F6
:104A1000204600F077F8C3E76FF040021A612046A5
:104A2000FFF74AFFC5E76FF020021A61204600F049
:104A300068F8C7E70368254A90420ED0B0F1804F6E
:104A40000BD0A2F57C42904207D002F580629042E2
:104A500003D002F58062904203D123F070034A68CC
:104A600013431A4A90421AD0B0F1804F17D0A2F5E2
:104A70007C42904213D002F5806290420FD002F542
:104A8000806290420BD002F59A32904207D002F534
:104A90008062904203D002F58062904203D123F4F9
:104AA0004073CA68134323F080034A6913430360C9
:104AB0008B68C3620B688362044B984202D0012367
:104AC000436170470B690363F9E700BF00000140D1
:104AD000A8B110B5044690F83D305BB1022384F8CC
:104AE0003D30211D2068FFF7A5FF012384F83D30EC
:104AF000002010BD80F83C30FCF704F9EEE70120FF
:104B00007047704770470268D36823F49073D3608E
:104B10000268536923F001035361202380F83A307F
:104B2000704790F83930DBB2212B2AD18368B3F576
:104B3000805F16D0036A5A1C02621A7803685A60B2
:104B4000C38C013B9BB2C384EBB90268D36823F0EA
:104B50008003D3600268D36843F04003D360002031
:104B60007047036A1B880268C3F308035360036934
:104B70001BB9036A02330362E2E7036A013303628B
:104B8000DEE7022070470020704700002DE9F04B5F
:104B900004460268136923F44053C1680B43136150
:104BA00083680269134342691343C2691A43016867
:104BB000CB6823F4164323F00C031343CB60026845
:104BC000536923F4407381690B435361C369B3F59F
:104BD000004F3BD00368714A934200F0AB8002F56E
:104BE0008062934200F0A680FFF732FE4FF000098A
:104BF000061849EB090716EB000B47EB090C4FEAC7
:104C0000CC0343EA5B734FEACB0293469C4663684E
:104C10009A009B0F10EB0B0049EB0C01FBF79CFC7F
:104C20005F4DA5FB00325109642202FB1102130102
:104C30003233A5FB03235B0903F0F00202EB011200
:104C400003F00F03216813448B60A4E00368534A08
:104C5000934239D002F58062934235D0FFF7F8FDD8
:104C600083464FF0000C06184CEB0C0716EB0008BF
:104C700047EB0C094FEAC90343EA58734FEAC802ED
:104C80009046994662680021921841EB01031BEBA4
:104C900008004CEB0901FBF75FFC414DA5FB00321E
:104CA0005109642202FB1102D3003233A5FB032316
:104CB0005B095A0002F4F87202EB011203F00703D9
:104CC000216813448B6066E0FFF7D2FD80464FF009
:104CD0000009061849EB090716EB000B47EB090C16
:104CE0004FEACC0343EA5B734FEACB0293469C4600
:104CF00062680021921841EB010318EB0B0049EBAD
:104D00000C01FBF729FC264DA5FB0032510964225A
:104D100002FB1102D3003233A5FB03235B095A00C7
:104D200002F4F87202EB011203F007032168134446
:104D30008B6030E0FFF79CFD4FF00009061849EB4F
:104D4000090716EB000B47EB090C4FEACC0343EACB
:104D50005B734FEACB0293469C4663689A009B0FB5
:104D600010EB0B0049EB0C01FBF7F6FB0C4DA5FB20
:104D700000325109642202FB110213013233A5FBF8
:104D800003235B0903F0F00202EB011203F00F03AF
:104D9000216813448B60BDE8F08B00BF0010014018
:104DA0001F85EB512DE9F04105460F461646984602
:104DB000069C2B681B6837EA03030CBF0123002302
:104DC000B3421DD1B4F1FF3FF3D02CB1FEF7DCFAB2
:104DD000A0EB0800A042ECD92A68D36823F4D07372
:104DE000D3602A68536923F001035361202385F8B7
:104DF000393085F83A30002385F83830032000E058
:104E00000020BDE8F08158B310B5044690F8393061
:104E10000BB3242384F839302268D36823F4005379
:104E2000D3602046FFF7B2FE2268136923F4904353
:104E300013612268536923F02A0353612268D368FF
:104E400043F40053D3600020E063202384F839301A
:104E500084F83A3010BD80F83830FBF773FFD8E79C
:104E6000012070472DE9F04383B01E4690F8393099
:104E7000DBB2202B56D104460D469046002956D071
:104E8000002A56D090F83830012B54D0012380F8F6
:104E900038304FF00009C0F83C90212380F83930B9
:104EA000FEF772FA0746A4F82480A4F8268084F856
:104EB000389010E000963B46002280212046FFF704
:104EC00071FF002839D12B882268C3F3080353608F
:104ED0002369C3B90235E38C9BB2B3B1E38C013BC8
:104EE0009BB2E384A368B3F5805FE3D000963B46B2
:104EF000002280212046FFF755FF00BB2A78236857
:104F00005A600135E7E70135E5E700963B460022A8
:104F100040212046FFF746FF034690B9202284F83F
:104F2000392000E00223184603B0BDE8F0830123D6
:104F3000F9E70123F7E70223F5E70323F3E7032368
:104F4000F1E70323EFE72DE9F04383B01E4690F825
:104F50003A30DBB2202B5CD104460D469046002946
:104F60005BD0002A5BD090F83830012B59D0012358
:104F700080F838304FF00009C0F83C90222380F8C8
:104F80003A30FEF701FA0746A4F82C80A4F82E80E8
:104F900084F838901DE000963B46002220212046F0
:104FA000FFF700FF00283ED1236933B923685B680F
:104FB000C3F3080325F8023B0BE023685B68DBB210
:104FC00025F8013B05E023685B6803F07F032B7045
:104FD0000135E38D9BB2BBB1E38D013B9BB2E38511
:104FE000A368B3F5805FD6D000963B46002220210F
:104FF0002046FFF7D7FEC0B92369002BE3D1236811
:105000005B682B700135E4E7202384F83A300020F8
:1050100000E0022003B0BDE8F0830120FAE70120A0
:10502000F8E70220F6E70320F4E70320F2E77047F1
:1050300008B50168CB6823F04003CB60202380F8DB
:105040003930FFF7F4FF002008BD704708B590F82D
:105050003A30DBB2222B45D18368B3F5805F0ED0A6
:10506000036903BB03685A68836A591C81621A701A
:10507000C38D013B9BB2C385F3B1002033E0826A4C
:10508000036943B903685B68C3F308031380836A49
:1050900002338362ECE703685B68DBB21380836AE8
:1050A00001338362E4E703685B68826A511C8162B2
:1050B00003F07F031370DBE70268D36823F020035B
:1050C000D3600268D36823F48073D36002685369A5
:1050D00023F001035361202380F83A30FFF7B5FF36
:1050E000002000E0022008BD7047000010B5044613
:1050F00002681368D168526913F00F0005D113F0EC
:10510000200F02D011F0200F56D100286AD012F0E3
:10511000010202D111F4907F64D013F0010F06D088
:1051200011F4807F03D0E06B40F00100E06313F0E6
:10513000040F04D01AB1E06B40F00200E06313F0FA
:10514000020F04D01AB1E06B40F00400E06313F0EA
:10515000080F07D011F0200F00D11AB1E26B42F016
:105160000802E263E26B002A48D013F0200F02D05D
:1051700011F0200F24D123685B6903F04003E26B38
:1051800012F0080F00D13BB32046FFF7BCFC2368A8
:105190005A6912F0400F1BD05A6922F040025A613E
:1051A000636B8BB11A4A1A65606BFEF75DF928B321
:1051B000606B036D984721E02046FFF747FF1DE035
:1051C0002046FFF743FFD6E72046FFF78DFF15E0A7
:1051D0002046FFF789FF11E02046FFF785FF0023F7
:1051E000E3630BE013F0800F02D011F0800F06D1C3
:1051F00013F0400F02D011F0400F04D110BD204633
:10520000FFF78FFCFAE72046FFF712FFF6E700BF33
:105210001552000808B5806B0023C385C384FFF7CF
:1052200063FF08BD90F8393090F83A001843704792
:10523000DFF834D0002103E00C4B5B5843500431BD
:105240000B480C4B42189A42F6D30B4A02E000235B
:1052500042F8043B094B9A42F9D3FBF7E3FE00F016
:1052600017F8FBF771FC704700800120185C0008FC
:1052700000000020B4020020B40200203806002004
:10528000FEE70000014B1868704700BF5002002085
:1052900070B50D4E0D4CA41BA4100025A54209D1DC
:1052A0000B4E0C4C00F03AFCA41BA4100025A542A8
:1052B00005D170BD56F8253098470135EEE756F810
:1052C000253098470135F2E7105C0008105C0008B3
:1052D000105C0008145C000802440346934200D1AD
:1052E000704703F8011BF9E70CB430B5174B0C1EDF
:1052F0009DB01D6808DA8B232B604FF0FF301DB086
:10530000BDE8304002B070474FF40273ADF814307E
:1053100014BF04F1FF332346049307934FF6FF7342
:1053200002900690ADF81630209A21AB02A92846CB
:10533000019300F067F8431CBCBF8B232B60002C4B
:10534000DDD0029B00221A70D9E700BF5002002076
:105350002DE9F0478E689E4282460C46904699465B
:1053600037D88A8912F4906F31D0256809696F1A8D
:105370006569022305EB450595FBF3F509F101038A
:105380003B449D4238BF1D46530530D5294600F0A9
:105390002BFB064650B90C23CAF80030A38943F012
:1053A0004003A3814FF0FF30BDE8F0873A46216902
:1053B00000F0A8FAA38923F4906343F08003A3814B
:1053C000266165613E44ED1B2660A5604E464E4554
:1053D00000D94E4632464146206800F09EFAA36846
:1053E0009B1BA36023681E4426600020DCE72A463E
:1053F00000F054FB06460028E2D12169504600F037
:10540000A5FAC8E72DE9F04F1D468B891F069DB010
:1054100080460C4616460FD50B696BB9402100F04B
:10542000E3FA2060206128B90C23C8F800304FF05F
:10543000FF30C8E0402363610023099320238DF8E7
:10544000293030238DF82A3003954FF0010B374671
:105450003D4615F8013B0BB1252B3ED1B7EB060AB3
:105460000BD05346324621464046FFF771FF0130CC
:1054700000F0A480099B534409933B78002B00F073
:105480009D8000234FF0FF32CDE90523049307935D
:105490008DF853301A932F46052217F8011B5048F8
:1054A000FBF7DEF9049BD0B9D90644BF20228DF862
:1054B00053201A0744BF2B228DF853202A782A2A1A
:1054C00015D0079A2F4600200A25394611F8013BCE
:1054D000303B092B4DD9B8B10FE02F46B8E7404A11
:1054E000801A0BFA00F0184304903D46D3E7039A64
:1054F000111D12680391002A01DB079204E0524259
:1055000043F00203079204933B782E2B0CD17B7857
:105510002A2B33D1039B1A1D1B680392002BB8BFA3
:105520004FF0FF33023705932E4D3978032228467A
:10553000FBF796F938B14023401B03FA00F0049BB7
:10554000034301370493397827488DF82810062241
:105550007E1CFBF785F9002838D0244B13BB039B36
:10556000073323F0070308330393099B4B44099344
:105570006DE705FB023201200F46A6E70023013745
:10558000059319460A25384610F8012B303A092AA6
:1055900003D9002BC8D00591C6E705FB01210123E3
:1055A0000746F0E703AB00932246114B04A940469F
:1055B000AFF30080B0F1FF3F8146D6D1A3895B06EF
:1055C0003FF535AF09981DB0BDE8F08F03AB0093F0
:1055D0002246074B04A9404600F082F8EAE700BFE4
:1055E000D45B0008DA5B0008DE5B00080000000006
:1055F000515300082DE9F04791461F468A680B6910
:10560000DDF820809342B8BF1346C9F8003091F806
:10561000432006460C4612B10133C9F80030236816
:10562000990642BFD9F800300233C9F80030256826
:1056300015F0060507D104F1190AE368D9F800202E
:105640009B1AAB4228DC94F843302268003318BF21
:10565000012392062DD404F1430239463046C04757
:10566000013020D02368E568D9F8002003F0060354
:10567000042B08BFAD1AA36822690CBF25EAE575A3
:1056800000259342C4BF9B1AED184FF000091A344D
:105690004D451AD1002008E00123524639463046D4
:1056A000C047013003D14FF0FF30BDE8F08701352E
:1056B000C3E7E1185A1C302081F84300224494F8D3
:1056C000451082F843100233C5E7012322463946CC
:1056D0003046C0470130E6D009F10109D8E70000A3
:1056E0002DE9F04301F1430C0C46097E85B06E298B
:1056F0001746064698460C9A00F0B38022D86329D4
:1057000036D00AD8002900F0B980582900F08380EB
:1057100004F1420584F8421032E0642901D069297D
:10572000F6D120681368050603F104012AD51B6829
:105730001160002B03DA2D225B4284F843206F486E
:105740000A2239E0732900F09D8008D86F2920D003
:105750007029DDD1236843F02003236003E075291D
:1057600017D07829D4D1782384F84530644855E09F
:105770001368191D1B68116004F1420584F842305A
:1057800001238CE01B68116010F0400F18BF1BB2A2
:10579000CFE713682568181D1060280601D51B681F
:1057A00002E06806FBD51B8854486F2914BF0A2203
:1057B0000822002184F843106568A560002DC0F21E
:1057C0009580216821F004012160002B3DD1002D3E
:1057D00040F08E806546082A0BD12368DB0708D588
:1057E000236962689A42DEBF302305F8013C05F167
:1057F000FF35ACEB05032361CDF800803B4603AADF
:1058000021463046FFF7F6FE01304DD14FF0FF3014
:1058100005B0BDE8F083394884F845101368216865
:105820001D1D1B6815600A060BD5CA0744BF41F051
:10583000200121601BB9226822F020022260102280
:10584000B7E74D0648BF9BB2EFE76546B3FBF2F101
:1058500002FB1133C35C05F8013D0B460029F5D16D
:10586000B9E7136825686169181D106028061B6870
:1058700001D5196002E06A06FBD519800023236177
:105880006546B9E71368191D11601D68626800213B
:105890002846FAF7E5FF08B1401B606063682361A2
:1058A000002384F84330A7E723692A463946304667
:1058B000C0470130AAD023689B0713D4E068039B3C
:1058C0009842B8BF1846A3E701234A4639463046F6
:1058D000C04701309AD00135E368039A9B1AAB4266
:1058E000F2DCEBE7002504F11909F5E7002BACD158
:1058F000037884F8423004F142056CE7E55B000868
:10590000F65B000810B5431E0A44914200D110BD59
:1059100011F8014B03F8014FF7E7884210B501EB8E
:10592000020307D8421E99420AD011F8014B02F82F
:10593000014FF8E78342F5D98118D21AD34200D13A
:1059400010BD13F8014D01F8014DF7E738B50546D4
:10595000002945D051F8043C0C1F002BB8BFE418B7
:1059600000F0D2F81F4A1368104633B96360146020
:105970002846BDE8384000F0C8B8A3420CD92168D9
:105980006218934204BF1A685B68636004BF5218D0
:1059900022600460ECE713465A680AB1A242FAD9C1
:1059A00019685818A0420BD1206801445818824247
:1059B0001960DDD1106852685A6001441960D7E758
:1059C00002D90C232B60D3E7206821188A4204BF38
:1059D00011685268626004BF091821605C60C7E703
:1059E00038BD00BFAC03002070B5CD1C25F0030509
:1059F00008350C2D38BF0C25002D064601DBA942C9
:105A000003D90C233360002070BD00F07DF8214ADB
:105A10001468214691B9204C23681BB9304600F028
:105A200063F820602946304600F05EF8431C24D11C
:105A30000C233360304600F068F8E4E70B685B1B2A
:105A400018D40B2B0FD90B60CD50CC18304600F07A
:105A50005CF804F10B00231D20F00700C31AD3D01B
:105A60005A42E250D0E78C424B6816BF6360136025
:105A70000C46EBE70C464968CCE7C41C24F0030451
:105A8000A04205D0211A304600F02EF80130CFD0C8
:105A90002560DBE7AC030020B0030020F8B5074623
:105AA00014460E4621B91146BDE8F840FFF79CBFE9
:105AB00022B9FFF74BFF25462846F8BD00F026F82F
:105AC000A0420FD221463846FFF78EFF0546002838
:105AD000F2D031462246FFF715FF31463846FFF730
